{
    "_format": "hh-sol-artifact-1",
    "contractName": "TShirtNFT",
    "sourceName": "contracts/TShirtNFT.sol",
    "abi": [
        {
            "inputs": [],
            "stateMutability": "nonpayable",
            "type": "constructor"
        },
        {
            "inputs": [
                {
                    "internalType": "address",
                    "name": "sender",
                    "type": "address"
                },
                {
                    "internalType": "uint256",
                    "name": "tokenId",
                    "type": "uint256"
                },
                {
                    "internalType": "address",
                    "name": "owner",
                    "type": "address"
                }
            ],
            "name": "ERC721IncorrectOwner",
            "type": "error"
        },
        {
            "inputs": [
                {
                    "internalType": "address",
                    "name": "operator",
                    "type": "address"
                },
                {
                    "internalType": "uint256",
                    "name": "tokenId",
                    "type": "uint256"
                }
            ],
            "name": "ERC721InsufficientApproval",
            "type": "error"
        },
        {
            "inputs": [
                {
                    "internalType": "address",
                    "name": "approver",
                    "type": "address"
                }
            ],
            "name": "ERC721InvalidApprover",
            "type": "error"
        },
        {
            "inputs": [
                {
                    "internalType": "address",
                    "name": "operator",
                    "type": "address"
                }
            ],
            "name": "ERC721InvalidOperator",
            "type": "error"
        },
        {
            "inputs": [
                {
                    "internalType": "address",
                    "name": "owner",
                    "type": "address"
                }
            ],
            "name": "ERC721InvalidOwner",
            "type": "error"
        },
        {
            "inputs": [
                {
                    "internalType": "address",
                    "name": "receiver",
                    "type": "address"
                }
            ],
            "name": "ERC721InvalidReceiver",
            "type": "error"
        },
        {
            "inputs": [
                {
                    "internalType": "address",
                    "name": "sender",
                    "type": "address"
                }
            ],
            "name": "ERC721InvalidSender",
            "type": "error"
        },
        {
            "inputs": [
                {
                    "internalType": "uint256",
                    "name": "tokenId",
                    "type": "uint256"
                }
            ],
            "name": "ERC721NonexistentToken",
            "type": "error"
        },
        {
            "anonymous": false,
            "inputs": [
                {
                    "indexed": true,
                    "internalType": "address",
                    "name": "owner",
                    "type": "address"
                },
                {
                    "indexed": true,
                    "internalType": "address",
                    "name": "approved",
                    "type": "address"
                },
                {
                    "indexed": true,
                    "internalType": "uint256",
                    "name": "tokenId",
                    "type": "uint256"
                }
            ],
            "name": "Approval",
            "type": "event"
        },
        {
            "anonymous": false,
            "inputs": [
                {
                    "indexed": true,
                    "internalType": "address",
                    "name": "owner",
                    "type": "address"
                },
                {
                    "indexed": true,
                    "internalType": "address",
                    "name": "operator",
                    "type": "address"
                },
                {
                    "indexed": false,
                    "internalType": "bool",
                    "name": "approved",
                    "type": "bool"
                }
            ],
            "name": "ApprovalForAll",
            "type": "event"
        },
        {
            "anonymous": false,
            "inputs": [
                {
                    "indexed": true,
                    "internalType": "uint256",
                    "name": "tokenId",
                    "type": "uint256"
                },
                {
                    "indexed": false,
                    "internalType": "address",
                    "name": "buyer",
                    "type": "address"
                }
            ],
            "name": "NewTShirtBuy",
            "type": "event"
        },
        {
            "anonymous": false,
            "inputs": [
                {
                    "indexed": true,
                    "internalType": "address",
                    "name": "from",
                    "type": "address"
                },
                {
                    "indexed": true,
                    "internalType": "address",
                    "name": "to",
                    "type": "address"
                },
                {
                    "indexed": true,
                    "internalType": "uint256",
                    "name": "tokenId",
                    "type": "uint256"
                }
            ],
            "name": "Transfer",
            "type": "event"
        },
        {
            "inputs": [
                {
                    "internalType": "address",
                    "name": "to",
                    "type": "address"
                },
                {
                    "internalType": "uint256",
                    "name": "tokenId",
                    "type": "uint256"
                }
            ],
            "name": "approve",
            "outputs": [],
            "stateMutability": "nonpayable",
            "type": "function"
        },
        {
            "inputs": [
                {
                    "internalType": "address",
                    "name": "owner",
                    "type": "address"
                }
            ],
            "name": "balanceOf",
            "outputs": [
                {
                    "internalType": "uint256",
                    "name": "",
                    "type": "uint256"
                }
            ],
            "stateMutability": "view",
            "type": "function"
        },
        {
            "inputs": [
                {
                    "internalType": "address",
                    "name": "buyer",
                    "type": "address"
                }
            ],
            "name": "buyTShirt",
            "outputs": [
                {
                    "internalType": "uint256",
                    "name": "",
                    "type": "uint256"
                }
            ],
            "stateMutability": "nonpayable",
            "type": "function"
        },
        {
            "inputs": [
                {
                    "internalType": "uint256",
                    "name": "tokenId",
                    "type": "uint256"
                }
            ],
            "name": "getApproved",
            "outputs": [
                {
                    "internalType": "address",
                    "name": "",
                    "type": "address"
                }
            ],
            "stateMutability": "view",
            "type": "function"
        },
        {
            "inputs": [
                {
                    "internalType": "address",
                    "name": "owner",
                    "type": "address"
                },
                {
                    "internalType": "address",
                    "name": "operator",
                    "type": "address"
                }
            ],
            "name": "isApprovedForAll",
            "outputs": [
                {
                    "internalType": "bool",
                    "name": "",
                    "type": "bool"
                }
            ],
            "stateMutability": "view",
            "type": "function"
        },
        {
            "inputs": [],
            "name": "name",
            "outputs": [
                {
                    "internalType": "string",
                    "name": "",
                    "type": "string"
                }
            ],
            "stateMutability": "view",
            "type": "function"
        },
        {
            "inputs": [
                {
                    "internalType": "uint256",
                    "name": "tokenId",
                    "type": "uint256"
                }
            ],
            "name": "ownerOf",
            "outputs": [
                {
                    "internalType": "address",
                    "name": "",
                    "type": "address"
                }
            ],
            "stateMutability": "view",
            "type": "function"
        },
        {
            "inputs": [
                {
                    "internalType": "address",
                    "name": "from",
                    "type": "address"
                },
                {
                    "internalType": "address",
                    "name": "to",
                    "type": "address"
                },
                {
                    "internalType": "uint256",
                    "name": "tokenId",
                    "type": "uint256"
                }
            ],
            "name": "safeTransferFrom",
            "outputs": [],
            "stateMutability": "nonpayable",
            "type": "function"
        },
        {
            "inputs": [
                {
                    "internalType": "address",
                    "name": "from",
                    "type": "address"
                },
                {
                    "internalType": "address",
                    "name": "to",
                    "type": "address"
                },
                {
                    "internalType": "uint256",
                    "name": "tokenId",
                    "type": "uint256"
                },
                {
                    "internalType": "bytes",
                    "name": "data",
                    "type": "bytes"
                }
            ],
            "name": "safeTransferFrom",
            "outputs": [],
            "stateMutability": "nonpayable",
            "type": "function"
        },
        {
            "inputs": [
                {
                    "internalType": "address",
                    "name": "operator",
                    "type": "address"
                },
                {
                    "internalType": "bool",
                    "name": "approved",
                    "type": "bool"
                }
            ],
            "name": "setApprovalForAll",
            "outputs": [],
            "stateMutability": "nonpayable",
            "type": "function"
        },
        {
            "inputs": [
                {
                    "internalType": "bytes4",
                    "name": "interfaceId",
                    "type": "bytes4"
                }
            ],
            "name": "supportsInterface",
            "outputs": [
                {
                    "internalType": "bool",
                    "name": "",
                    "type": "bool"
                }
            ],
            "stateMutability": "view",
            "type": "function"
        },
        {
            "inputs": [],
            "name": "symbol",
            "outputs": [
                {
                    "internalType": "string",
                    "name": "",
                    "type": "string"
                }
            ],
            "stateMutability": "view",
            "type": "function"
        },
        {
            "inputs": [
                {
                    "internalType": "uint256",
                    "name": "tokenId",
                    "type": "uint256"
                }
            ],
            "name": "tokenURI",
            "outputs": [
                {
                    "internalType": "string",
                    "name": "",
                    "type": "string"
                }
            ],
            "stateMutability": "view",
            "type": "function"
        },
        {
            "inputs": [
                {
                    "internalType": "address",
                    "name": "from",
                    "type": "address"
                },
                {
                    "internalType": "address",
                    "name": "to",
                    "type": "address"
                },
                {
                    "internalType": "uint256",
                    "name": "tokenId",
                    "type": "uint256"
                }
            ],
            "name": "transferFrom",
            "outputs": [],
            "stateMutability": "nonpayable",
            "type": "function"
        }
    ],
    "bytecode": "0x60806040523480156200001157600080fd5b506040518060400160405280600681526020017f54536869727400000000000000000000000000000000000000000000000000008152506040518060400160405280600481526020017f545348490000000000000000000000000000000000000000000000000000000081525081600090816200008f919062000324565b508060019081620000a1919062000324565b5050506200040b565b600081519050919050565b7f4e487b7100000000000000000000000000000000000000000000000000000000600052604160045260246000fd5b7f4e487b7100000000000000000000000000000000000000000000000000000000600052602260045260246000fd5b600060028204905060018216806200012c57607f821691505b602082108103620001425762000141620000e4565b5b50919050565b60008190508160005260206000209050919050565b60006020601f8301049050919050565b600082821b905092915050565b600060088302620001ac7fffffffffffffffffffffffffffffffffffffffffffffffffffffffffffffffff826200016d565b620001b886836200016d565b95508019841693508086168417925050509392505050565b6000819050919050565b6000819050919050565b600062000205620001ff620001f984620001d0565b620001da565b620001d0565b9050919050565b6000819050919050565b6200022183620001e4565b6200023962000230826200020c565b8484546200017a565b825550505050565b600090565b6200025062000241565b6200025d81848462000216565b505050565b5b8181101562000285576200027960008262000246565b60018101905062000263565b5050565b601f821115620002d4576200029e8162000148565b620002a9846200015d565b81016020851015620002b9578190505b620002d1620002c8856200015d565b83018262000262565b50505b505050565b600082821c905092915050565b6000620002f960001984600802620002d9565b1980831691505092915050565b6000620003148383620002e6565b9150826002028217905092915050565b6200032f82620000aa565b67ffffffffffffffff8111156200034b576200034a620000b5565b5b62000357825462000113565b6200036482828562000289565b600060209050601f8311600181146200039c576000841562000387578287015190505b62000393858262000306565b86555062000403565b601f198416620003ac8662000148565b60005b82811015620003d657848901518255600182019150602085019450602081019050620003af565b86831015620003f65784890151620003f2601f891682620002e6565b8355505b6001600288020188555050505b505050505050565b611e9e806200041b6000396000f3fe608060405234801561001057600080fd5b50600436106100ea5760003560e01c806370a082311161008c578063b88d4fde11610066578063b88d4fde1461025b578063c87b56dd14610277578063e985e9c5146102a7578063f6e4a3e5146102d7576100ea565b806370a08231146101f157806395d89b4114610221578063a22cb4651461023f576100ea565b8063095ea7b3116100c8578063095ea7b31461016d57806323b872dd1461018957806342842e0e146101a55780636352211e146101c1576100ea565b806301ffc9a7146100ef57806306fdde031461011f578063081812fc1461013d575b600080fd5b61010960048036038101906101049190611671565b610307565b60405161011691906116b9565b60405180910390f35b6101276103e9565b6040516101349190611764565b60405180910390f35b610157600480360381019061015291906117bc565b61047b565b604051610164919061182a565b60405180910390f35b61018760048036038101906101829190611871565b610497565b005b6101a3600480360381019061019e91906118b1565b6104ad565b005b6101bf60048036038101906101ba91906118b1565b6105af565b005b6101db60048036038101906101d691906117bc565b6105cf565b6040516101e8919061182a565b60405180910390f35b61020b60048036038101906102069190611904565b6105e1565b6040516102189190611940565b60405180910390f35b61022961069b565b6040516102369190611764565b60405180910390f35b61025960048036038101906102549190611987565b61072d565b005b61027560048036038101906102709190611afc565b610743565b005b610291600480360381019061028c91906117bc565b610760565b60405161029e9190611764565b60405180910390f35b6102c160048036038101906102bc9190611b7f565b6107c9565b6040516102ce91906116b9565b60405180910390f35b6102f160048036038101906102ec9190611904565b61085d565b6040516102fe9190611940565b60405180910390f35b60007f80ac58cd000000000000000000000000000000000000000000000000000000007bffffffffffffffffffffffffffffffffffffffffffffffffffffffff1916827bffffffffffffffffffffffffffffffffffffffffffffffffffffffff191614806103d257507f5b5e139f000000000000000000000000000000000000000000000000000000007bffffffffffffffffffffffffffffffffffffffffffffffffffffffff1916827bffffffffffffffffffffffffffffffffffffffffffffffffffffffff1916145b806103e257506103e1826108c4565b5b9050919050565b6060600080546103f890611bee565b80601f016020809104026020016040519081016040528092919081815260200182805461042490611bee565b80156104715780601f1061044657610100808354040283529160200191610471565b820191906000526020600020905b81548152906001019060200180831161045457829003601f168201915b5050505050905090565b60006104868261092e565b50610490826109b6565b9050919050565b6104a982826104a46109f3565b6109fb565b5050565b600073ffffffffffffffffffffffffffffffffffffffff168273ffffffffffffffffffffffffffffffffffffffff160361051f5760006040517f64a0ae92000000000000000000000000000000000000000000000000000000008152600401610516919061182a565b60405180910390fd5b6000610533838361052e6109f3565b610a0d565b90508373ffffffffffffffffffffffffffffffffffffffff168173ffffffffffffffffffffffffffffffffffffffff16146105a9578382826040517f64283d7b0000000000000000000000000000000000000000000000000000000081526004016105a093929190611c1f565b60405180910390fd5b50505050565b6105ca83838360405180602001604052806000815250610743565b505050565b60006105da8261092e565b9050919050565b60008073ffffffffffffffffffffffffffffffffffffffff168273ffffffffffffffffffffffffffffffffffffffff16036106545760006040517f89c62b6400000000000000000000000000000000000000000000000000000000815260040161064b919061182a565b60405180910390fd5b600360008373ffffffffffffffffffffffffffffffffffffffff1673ffffffffffffffffffffffffffffffffffffffff168152602001908152602001600020549050919050565b6060600180546106aa90611bee565b80601f01602080910402602001604051908101604052809291908181526020018280546106d690611bee565b80156107235780601f106106f857610100808354040283529160200191610723565b820191906000526020600020905b81548152906001019060200180831161070657829003601f168201915b5050505050905090565b61073f6107386109f3565b8383610c27565b5050565b61074e8484846104ad565b61075a84848484610d96565b50505050565b606061076b8261092e565b506000610776610f4d565b9050600081511161079657604051806020016040528060008152506107c1565b806107a084610f64565b6040516020016107b1929190611c92565b6040516020818303038152906040525b915050919050565b6000600560008473ffffffffffffffffffffffffffffffffffffffff1673ffffffffffffffffffffffffffffffffffffffff16815260200190815260200160002060008373ffffffffffffffffffffffffffffffffffffffff1673ffffffffffffffffffffffffffffffffffffffff16815260200190815260200160002060009054906101000a900460ff16905092915050565b6000806006600081548092919061087390611ce5565b9190505590506108838382611032565b807f2091c49dc34432fe67838996b8fa9bda05f36012901872f23e82e71e9e250385846040516108b3919061182a565b60405180910390a280915050919050565b60007f01ffc9a7000000000000000000000000000000000000000000000000000000007bffffffffffffffffffffffffffffffffffffffffffffffffffffffff1916827bffffffffffffffffffffffffffffffffffffffffffffffffffffffff1916149050919050565b60008061093a8361112b565b9050600073ffffffffffffffffffffffffffffffffffffffff168173ffffffffffffffffffffffffffffffffffffffff16036109ad57826040517f7e2732890000000000000000000000000000000000000000000000000000000081526004016109a49190611940565b60405180910390fd5b80915050919050565b60006004600083815260200190815260200160002060009054906101000a900473ffffffffffffffffffffffffffffffffffffffff169050919050565b600033905090565b610a088383836001611168565b505050565b600080610a198461112b565b9050600073ffffffffffffffffffffffffffffffffffffffff168373ffffffffffffffffffffffffffffffffffffffff1614610a5b57610a5a81848661132d565b5b600073ffffffffffffffffffffffffffffffffffffffff168173ffffffffffffffffffffffffffffffffffffffff1614610aec57610a9d600085600080611168565b6001600360008373ffffffffffffffffffffffffffffffffffffffff1673ffffffffffffffffffffffffffffffffffffffff168152602001908152602001600020600082825403925050819055505b600073ffffffffffffffffffffffffffffffffffffffff168573ffffffffffffffffffffffffffffffffffffffff1614610b6f576001600360008773ffffffffffffffffffffffffffffffffffffffff1673ffffffffffffffffffffffffffffffffffffffff168152602001908152602001600020600082825401925050819055505b846002600086815260200190815260200160002060006101000a81548173ffffffffffffffffffffffffffffffffffffffff021916908373ffffffffffffffffffffffffffffffffffffffff160217905550838573ffffffffffffffffffffffffffffffffffffffff168273ffffffffffffffffffffffffffffffffffffffff167fddf252ad1be2c89b69c2b068fc378daa952ba7f163c4a11628f55a4df523b3ef60405160405180910390a4809150509392505050565b600073ffffffffffffffffffffffffffffffffffffffff168273ffffffffffffffffffffffffffffffffffffffff1603610c9857816040517f5b08ba18000000000000000000000000000000000000000000000000000000008152600401610c8f919061182a565b60405180910390fd5b80600560008573ffffffffffffffffffffffffffffffffffffffff1673ffffffffffffffffffffffffffffffffffffffff16815260200190815260200160002060008473ffffffffffffffffffffffffffffffffffffffff1673ffffffffffffffffffffffffffffffffffffffff16815260200190815260200160002060006101000a81548160ff0219169083151502179055508173ffffffffffffffffffffffffffffffffffffffff168373ffffffffffffffffffffffffffffffffffffffff167f17307eab39ab6107e8899845ad3d59bd9653f200f220920489ca2b5937696c3183604051610d8991906116b9565b60405180910390a3505050565b60008373ffffffffffffffffffffffffffffffffffffffff163b1115610f47578273ffffffffffffffffffffffffffffffffffffffff1663150b7a02610dda6109f3565b8685856040518563ffffffff1660e01b8152600401610dfc9493929190611d82565b6020604051808303816000875af1925050508015610e3857506040513d601f19601f82011682018060405250810190610e359190611de3565b60015b610ebc573d8060008114610e68576040519150601f19603f3d011682016040523d82523d6000602084013e610e6d565b606091505b506000815103610eb457836040517f64a0ae92000000000000000000000000000000000000000000000000000000008152600401610eab919061182a565b60405180910390fd5b805181602001fd5b63150b7a0260e01b7bffffffffffffffffffffffffffffffffffffffffffffffffffffffff1916817bffffffffffffffffffffffffffffffffffffffffffffffffffffffff191614610f4557836040517f64a0ae92000000000000000000000000000000000000000000000000000000008152600401610f3c919061182a565b60405180910390fd5b505b50505050565b606060405180602001604052806000815250905090565b606060006001610f73846113f1565b01905060008167ffffffffffffffff811115610f9257610f916119d1565b5b6040519080825280601f01601f191660200182016040528015610fc45781602001600182028036833780820191505090505b509050600082602001820190505b600115611027578080600190039150507f3031323334353637383961626364656600000000000000000000000000000000600a86061a8153600a858161101b5761101a611e10565b5b04945060008503610fd2575b819350505050919050565b600073ffffffffffffffffffffffffffffffffffffffff168273ffffffffffffffffffffffffffffffffffffffff16036110a45760006040517f64a0ae9200000000000000000000000000000000000000000000000000000000815260040161109b919061182a565b60405180910390fd5b60006110b283836000610a0d565b9050600073ffffffffffffffffffffffffffffffffffffffff168173ffffffffffffffffffffffffffffffffffffffff16146111265760006040517f73c6ac6e00000000000000000000000000000000000000000000000000000000815260040161111d919061182a565b60405180910390fd5b505050565b60006002600083815260200190815260200160002060009054906101000a900473ffffffffffffffffffffffffffffffffffffffff169050919050565b80806111a15750600073ffffffffffffffffffffffffffffffffffffffff168273ffffffffffffffffffffffffffffffffffffffff1614155b156112d55760006111b18461092e565b9050600073ffffffffffffffffffffffffffffffffffffffff168373ffffffffffffffffffffffffffffffffffffffff161415801561121c57508273ffffffffffffffffffffffffffffffffffffffff168173ffffffffffffffffffffffffffffffffffffffff1614155b801561122f575061122d81846107c9565b155b1561127157826040517fa9fbf51f000000000000000000000000000000000000000000000000000000008152600401611268919061182a565b60405180910390fd5b81156112d357838573ffffffffffffffffffffffffffffffffffffffff168273ffffffffffffffffffffffffffffffffffffffff167f8c5be1e5ebec7d5bd14f71427d1e84f3dd0314c0f7b2291e5b200ac8c7c3b92560405160405180910390a45b505b836004600085815260200190815260200160002060006101000a81548173ffffffffffffffffffffffffffffffffffffffff021916908373ffffffffffffffffffffffffffffffffffffffff16021790555050505050565b611338838383611544565b6113ec57600073ffffffffffffffffffffffffffffffffffffffff168373ffffffffffffffffffffffffffffffffffffffff16036113ad57806040517f7e2732890000000000000000000000000000000000000000000000000000000081526004016113a49190611940565b60405180910390fd5b81816040517f177e802f0000000000000000000000000000000000000000000000000000000081526004016113e3929190611e3f565b60405180910390fd5b505050565b600080600090507a184f03e93ff9f4daa797ed6e38ed64bf6a1f010000000000000000831061144f577a184f03e93ff9f4daa797ed6e38ed64bf6a1f010000000000000000838161144557611444611e10565b5b0492506040810190505b6d04ee2d6d415b85acef8100000000831061148c576d04ee2d6d415b85acef8100000000838161148257611481611e10565b5b0492506020810190505b662386f26fc1000083106114bb57662386f26fc1000083816114b1576114b0611e10565b5b0492506010810190505b6305f5e10083106114e4576305f5e10083816114da576114d9611e10565b5b0492506008810190505b61271083106115095761271083816114ff576114fe611e10565b5b0492506004810190505b6064831061152c576064838161152257611521611e10565b5b0492506002810190505b600a831061153b576001810190505b80915050919050565b60008073ffffffffffffffffffffffffffffffffffffffff168373ffffffffffffffffffffffffffffffffffffffff16141580156115fc57508273ffffffffffffffffffffffffffffffffffffffff168473ffffffffffffffffffffffffffffffffffffffff1614806115bd57506115bc84846107c9565b5b806115fb57508273ffffffffffffffffffffffffffffffffffffffff166115e3836109b6565b73ffffffffffffffffffffffffffffffffffffffff16145b5b90509392505050565b6000604051905090565b600080fd5b600080fd5b60007fffffffff0000000000000000000000000000000000000000000000000000000082169050919050565b61164e81611619565b811461165957600080fd5b50565b60008135905061166b81611645565b92915050565b6000602082840312156116875761168661160f565b5b60006116958482850161165c565b91505092915050565b60008115159050919050565b6116b38161169e565b82525050565b60006020820190506116ce60008301846116aa565b92915050565b600081519050919050565b600082825260208201905092915050565b60005b8381101561170e5780820151818401526020810190506116f3565b60008484015250505050565b6000601f19601f8301169050919050565b6000611736826116d4565b61174081856116df565b93506117508185602086016116f0565b6117598161171a565b840191505092915050565b6000602082019050818103600083015261177e818461172b565b905092915050565b6000819050919050565b61179981611786565b81146117a457600080fd5b50565b6000813590506117b681611790565b92915050565b6000602082840312156117d2576117d161160f565b5b60006117e0848285016117a7565b91505092915050565b600073ffffffffffffffffffffffffffffffffffffffff82169050919050565b6000611814826117e9565b9050919050565b61182481611809565b82525050565b600060208201905061183f600083018461181b565b92915050565b61184e81611809565b811461185957600080fd5b50565b60008135905061186b81611845565b92915050565b600080604083850312156118885761188761160f565b5b60006118968582860161185c565b92505060206118a7858286016117a7565b9150509250929050565b6000806000606084860312156118ca576118c961160f565b5b60006118d88682870161185c565b93505060206118e98682870161185c565b92505060406118fa868287016117a7565b9150509250925092565b60006020828403121561191a5761191961160f565b5b60006119288482850161185c565b91505092915050565b61193a81611786565b82525050565b60006020820190506119556000830184611931565b92915050565b6119648161169e565b811461196f57600080fd5b50565b6000813590506119818161195b565b92915050565b6000806040838503121561199e5761199d61160f565b5b60006119ac8582860161185c565b92505060206119bd85828601611972565b9150509250929050565b600080fd5b600080fd5b7f4e487b7100000000000000000000000000000000000000000000000000000000600052604160045260246000fd5b611a098261171a565b810181811067ffffffffffffffff82111715611a2857611a276119d1565b5b80604052505050565b6000611a3b611605565b9050611a478282611a00565b919050565b600067ffffffffffffffff821115611a6757611a666119d1565b5b611a708261171a565b9050602081019050919050565b82818337600083830152505050565b6000611a9f611a9a84611a4c565b611a31565b905082815260208101848484011115611abb57611aba6119cc565b5b611ac6848285611a7d565b509392505050565b600082601f830112611ae357611ae26119c7565b5b8135611af3848260208601611a8c565b91505092915050565b60008060008060808587031215611b1657611b1561160f565b5b6000611b248782880161185c565b9450506020611b358782880161185c565b9350506040611b46878288016117a7565b925050606085013567ffffffffffffffff811115611b6757611b66611614565b5b611b7387828801611ace565b91505092959194509250565b60008060408385031215611b9657611b9561160f565b5b6000611ba48582860161185c565b9250506020611bb58582860161185c565b9150509250929050565b7f4e487b7100000000000000000000000000000000000000000000000000000000600052602260045260246000fd5b60006002820490506001821680611c0657607f821691505b602082108103611c1957611c18611bbf565b5b50919050565b6000606082019050611c34600083018661181b565b611c416020830185611931565b611c4e604083018461181b565b949350505050565b600081905092915050565b6000611c6c826116d4565b611c768185611c56565b9350611c868185602086016116f0565b80840191505092915050565b6000611c9e8285611c61565b9150611caa8284611c61565b91508190509392505050565b7f4e487b7100000000000000000000000000000000000000000000000000000000600052601160045260246000fd5b6000611cf082611786565b91507fffffffffffffffffffffffffffffffffffffffffffffffffffffffffffffffff8203611d2257611d21611cb6565b5b600182019050919050565b600081519050919050565b600082825260208201905092915050565b6000611d5482611d2d565b611d5e8185611d38565b9350611d6e8185602086016116f0565b611d778161171a565b840191505092915050565b6000608082019050611d97600083018761181b565b611da4602083018661181b565b611db16040830185611931565b8181036060830152611dc38184611d49565b905095945050505050565b600081519050611ddd81611645565b92915050565b600060208284031215611df957611df861160f565b5b6000611e0784828501611dce565b91505092915050565b7f4e487b7100000000000000000000000000000000000000000000000000000000600052601260045260246000fd5b6000604082019050611e54600083018561181b565b611e616020830184611931565b939250505056fea264697066735822122094507b1a5f591b77a8e3de054c5451161cd27cd2d6b12e9afd389aa87939ba7f64736f6c63430008180033",
    "linkReferences": {},
    "deployedLinkReferences": {}
}