{
  "_format": "hh-sol-artifact-1",
  "contractName": "ERC6551Registry",
  "sourceName": "contracts/ERC6551Registry.sol",
  "abi": [
    {
      "inputs": [],
      "name": "Create2EmptyBytecode",
      "type": "error"
    },
    {
      "inputs": [],
      "name": "Create2FailedDeployment",
      "type": "error"
    },
    {
      "inputs": [
        {
          "internalType": "uint256",
          "name": "balance",
          "type": "uint256"
        },
        {
          "internalType": "uint256",
          "name": "needed",
          "type": "uint256"
        }
      ],
      "name": "Create2InsufficientBalance",
      "type": "error"
    },
    {
      "inputs": [],
      "name": "InitializationFailed",
      "type": "error"
    },
    {
      "anonymous": false,
      "inputs": [
        {
          "indexed": false,
          "internalType": "address",
          "name": "account",
          "type": "address"
        },
        {
          "indexed": true,
          "internalType": "address",
          "name": "implementation",
          "type": "address"
        },
        {
          "indexed": false,
          "internalType": "uint256",
          "name": "chainId",
          "type": "uint256"
        },
        {
          "indexed": true,
          "internalType": "address",
          "name": "tokenContract",
          "type": "address"
        },
        {
          "indexed": true,
          "internalType": "uint256",
          "name": "tokenId",
          "type": "uint256"
        },
        {
          "indexed": false,
          "internalType": "uint256",
          "name": "salt",
          "type": "uint256"
        }
      ],
      "name": "AccountCreated",
      "type": "event"
    },
    {
      "inputs": [
        {
          "internalType": "address",
          "name": "implementation",
          "type": "address"
        },
        {
          "internalType": "uint256",
          "name": "chainId",
          "type": "uint256"
        },
        {
          "internalType": "address",
          "name": "tokenContract",
          "type": "address"
        },
        {
          "internalType": "uint256",
          "name": "tokenId",
          "type": "uint256"
        },
        {
          "internalType": "uint256",
          "name": "salt",
          "type": "uint256"
        }
      ],
      "name": "account",
      "outputs": [
        {
          "internalType": "address",
          "name": "",
          "type": "address"
        }
      ],
      "stateMutability": "view",
      "type": "function"
    },
    {
      "inputs": [
        {
          "internalType": "address",
          "name": "implementation",
          "type": "address"
        },
        {
          "internalType": "uint256",
          "name": "chainId",
          "type": "uint256"
        },
        {
          "internalType": "address",
          "name": "tokenContract",
          "type": "address"
        },
        {
          "internalType": "uint256",
          "name": "tokenId",
          "type": "uint256"
        },
        {
          "internalType": "uint256",
          "name": "salt",
          "type": "uint256"
        },
        {
          "internalType": "bytes",
          "name": "initData",
          "type": "bytes"
        }
      ],
      "name": "createAccount",
      "outputs": [
        {
          "internalType": "address",
          "name": "",
          "type": "address"
        }
      ],
      "stateMutability": "nonpayable",
      "type": "function"
    }
  ],
  "bytecode": "0x608060405234801561000f575f80fd5b506108d28061001d5f395ff3fe608060405234801561000f575f80fd5b5060043610610034575f3560e01c80635e9bc53614610038578063da7323b314610068575b5f80fd5b610052600480360381019061004d919061046e565b610098565b60405161005f91906104f4565b60405180910390f35b610082600480360381019061007d919061056e565b6100c8565b60405161008f91906104f4565b60405180910390f35b5f806100a7878787878761024e565b8051906020012090506100bc835f1b826102a2565b91505095945050505050565b5f806100d7898989898961024e565b90505f6100ed865f1b83805190602001206102a2565b90505f8173ffffffffffffffffffffffffffffffffffffffff163b14610117578092505050610243565b868873ffffffffffffffffffffffffffffffffffffffff168b73ffffffffffffffffffffffffffffffffffffffff167f07fba7bba1191da7ee1155dcfa0030701c9c9a9cc34a93b991fc6fd0c9268d8f848d8b60405161017993929190610627565b60405180910390a461018e5f875f1b846102b6565b90505f858590501461023d575f8173ffffffffffffffffffffffffffffffffffffffff1686866040516101c2929190610698565b5f604051808303815f865af19150503d805f81146101fb576040519150601f19603f3d011682016040523d82523d5f602084013e610200565b606091505b505090508061023b576040517f19b991a800000000000000000000000000000000000000000000000000000000815260040160405180910390fd5b505b80925050505b979650505050505050565b6060858286868660405160200161026894939291906106b0565b604051602081830303815290604052604051602001610288929190610838565b604051602081830303815290604052905095945050505050565b5f6102ae8383306103af565b905092915050565b5f834710156102fe5747846040517fe4bbecac0000000000000000000000000000000000000000000000000000000081526004016102f5929190610875565b60405180910390fd5b5f825103610338576040517f4ca249dc00000000000000000000000000000000000000000000000000000000815260040160405180910390fd5b8282516020840186f590505f73ffffffffffffffffffffffffffffffffffffffff168173ffffffffffffffffffffffffffffffffffffffff16036103a8576040517f741752c200000000000000000000000000000000000000000000000000000000815260040160405180910390fd5b9392505050565b5f604051836040820152846020820152828152600b810160ff815360558120925050509392505050565b5f80fd5b5f80fd5b5f73ffffffffffffffffffffffffffffffffffffffff82169050919050565b5f61040a826103e1565b9050919050565b61041a81610400565b8114610424575f80fd5b50565b5f8135905061043581610411565b92915050565b5f819050919050565b61044d8161043b565b8114610457575f80fd5b50565b5f8135905061046881610444565b92915050565b5f805f805f60a08688031215610487576104866103d9565b5b5f61049488828901610427565b95505060206104a58882890161045a565b94505060406104b688828901610427565b93505060606104c78882890161045a565b92505060806104d88882890161045a565b9150509295509295909350565b6104ee81610400565b82525050565b5f6020820190506105075f8301846104e5565b92915050565b5f80fd5b5f80fd5b5f80fd5b5f8083601f84011261052e5761052d61050d565b5b8235905067ffffffffffffffff81111561054b5761054a610511565b5b60208301915083600182028301111561056757610566610515565b5b9250929050565b5f805f805f805f60c0888a031215610589576105886103d9565b5b5f6105968a828b01610427565b97505060206105a78a828b0161045a565b96505060406105b88a828b01610427565b95505060606105c98a828b0161045a565b94505060806105da8a828b0161045a565b93505060a088013567ffffffffffffffff8111156105fb576105fa6103dd565b5b6106078a828b01610519565b925092505092959891949750929550565b6106218161043b565b82525050565b5f60608201905061063a5f8301866104e5565b6106476020830185610618565b6106546040830184610618565b949350505050565b5f81905092915050565b828183375f83830152505050565b5f61067f838561065c565b935061068c838584610666565b82840190509392505050565b5f6106a4828486610674565b91508190509392505050565b5f6080820190506106c35f830187610618565b6106d06020830186610618565b6106dd60408301856104e5565b6106ea6060830184610618565b95945050505050565b5f81905092915050565b7f3d60ad80600a3d3981f3363d3d373d3d3d363d730000000000000000000000005f82015250565b5f6107316014836106f3565b915061073c826106fd565b601482019050919050565b5f8160601b9050919050565b5f61075d82610747565b9050919050565b5f61076e82610753565b9050919050565b61078661078182610400565b610764565b82525050565b7f5af43d82803e903d91602b57fd5bf300000000000000000000000000000000005f82015250565b5f6107c0600f836106f3565b91506107cb8261078c565b600f82019050919050565b5f81519050919050565b5f5b838110156107fd5780820151818401526020810190506107e2565b5f8484015250505050565b5f610812826107d6565b61081c818561065c565b935061082c8185602086016107e0565b80840191505092915050565b5f61084282610725565b915061084e8285610775565b60148201915061085d826107b4565b91506108698284610808565b91508190509392505050565b5f6040820190506108885f830185610618565b6108956020830184610618565b939250505056fea26469706673582212203711f9e4f484cd58a9658ed8f5a65d609fefb839222587721a94e1fe61df695564736f6c63430008180033",
  "linkReferences": {},
  "deployedLinkReferences": {}
}